:020000040000FA
:0600000002EF0BF01200FC
:020B2A000000C9
:040B2C00696A686A20
:100B3000100E6F6E080E6D6E00016D6B766B010E00
:100B40006E6F6F69936A816E6DBAFED71200D9CF4E
:100B5000E6FFE1CFD9FF020EE12668A202D06A6A61
:100B6000A5D068AC02D0689CA1D068A806D06898CF
:100B70006D82E00E8116818899D068A40FD06894A8
:100B80006D92E00E8116010E76C0E7FFE75204E099
:100B9000E846FE0BE706FCE1811288D068AA02D085
:100BA000689A84D068A032D000016D6B6896689610
:100BB00068966896706A716A726A736A746A756A0E
:100BC000766A776A786A796A7A6A7B6A7C6A7D6A09
:100BD0007E6A7F6A0401080E016F800E026F040EA8
:100BE000036F880E006F880E066F040E076F080EE5
:100BF000046F6E6A686A160E706E6B680001010EF3
:100C0000766F6E6FE00E8116818250D068A64ED04E
:100C10007C0E6C14016A000F006E040E012200C0ED
:100C2000DEFF01C0DDFFDECFE9FFDDCFEAFFEFCF62
:100C300060F0DECFE9FFDDCFEAFFEE52EFCF61F0EB
:100C4000DECFE9FFDDCFEAFF020EE926000EEA2241
:100C5000EECF62F0EDCF63F06CCF75F06896180EB2
:100C600000017515100A09E0180A05E0080A01E0FC
:100C700005D0817A03D0817C01D0817E6C6B3C0EE3
:100C80006015040A09E0200A05E0100A01E005D019
:100C900017D803D07CDB01D0A1DB00016CA106D00A
:100CA0000401080E016F840E046F006F020EE15CF8
:100CB00002E2E16AE552E16EE552E7CFD9FF1200A8
:100CC000D9CFE6FFE1CFD9FFE652DF6A080EDF5C3D
:100CD00014E2DF500001EA6A6225E96E6351EA22FC
:100CE000EF50E66EDF50EA6A640FE96E000EEA220A
:100CF000E552E750EF6EDF2AE9D70401080E016FD5
:100D0000046F800E0001641504E16A5104E16B5127
:100D100002E1000E01D0010E000902E0C80E01D070
:100D2000880E0401006F6D9800016F69600E6415F4
:100D3000400A09E0600A05E0200A01E006D00BD86D
:100D400005D070DA03D0DDDA01D06C81E552E552CE
:100D5000E7CFD9FF1200D9CFE6FFE1CFD9FF050ECB
:100D6000E12600016551070A01E151D20B0A01E1B8
:100D70004ED2070A01E136D2010A01E11DD2030A6F
:100D800001E1F1D1010A01E1E2D10E0A01E178D1DC
:100D9000030A01E167D1040A01E1C7D0020A01E1B7
:100DA000C4D0030A01E033D21F0E6415020A37E0F3
:100DB000030A16E0010A01E0B6D006C4E9FF07C441
:100DC000EAFF6EC0EFFF010E0401EA6A0625E96E34
:100DD0000751EA22EF6A020E056FC80E046FA4D015
:100DE0007651030A05E0010A01E018D06C8116D0A3
:100DF000010E685D12E206C4E9FF07C4EAFFEF6A6C
:100E0000010E0401EA6A0625E96E0751EA22EF6A3B
:100E1000020E056FC80E046F01D06C8185D076512B
:100E2000030A25E0010A01E07CD00F0E68151DE1E0
:100E3000800E681503E00401045102D00401005142
:100E4000040BE840E8403F0B06C4E9FF07C4EAFF93
:100E5000EF6E010EEA6A0625E96E0751EA22EF6A93
:100E6000020E056FC80E046F01D06C815BD0700E4E
:100E7000DE6E0F0EDD6E0F0E6815E76E020EE7CF09
:100E8000DBFF800E681502E0010E01D0000E026E3D
:100E9000020EDB50E8240210040DF3CF00F0F4CF73
:100EA00001F0000E0026040E0122030E00C0DBFF3D
:100EB000040E01C0DBFF800E681502E0020E01D0B7
:100EC000040E006E020EDB50E76E000EDFCFE9FF6E
:100ED000010EDBCFEAFFE750E926000EEA22EF50D1
:100EE00000141DE0030EDBCFE9FF040EDBCFEAFFA9
:100EF000EF50040BE840E8403F0B06C4E9FF07C48D
:100F0000EAFFEF6E010E0401EA6A0625E96E075159
:100F1000EA22EF6A020E056FC80E046F01D06C81E1
:100F200001D06C8101D06C8173D11F0E6415020A4F
:100F300013E0020A01E094D06651010A01E00AD0F0
:100F4000650502E16E9101D06E810401056BC80E4A
:100F5000046F01D06C8185D07651030A0DE0010A3F
:100F600001E07CD00F0E681505E10401056BC80E89
:100F7000046F01D06C8173D0700EDE6E0F0EDD6ECB
:100F80000F0E6815E76E020EE7CFDBFFDB505FE068
:100F9000800E681502E0010E01D0000E026E020EF6
:100FA000DB50E8240210040DF3CF00F0F4CF01F081
:100FB000000E0026040E0122030E00C0DBFF040E0B
:100FC00001C0DBFF68AF22D0020EDB50E76E000EDF
:100FD000DFCFE9FF010EDBCFEAFFE750E926000E85
:100FE000EA22EF50020B10E0650502E1000E01D08D
:100FF000840EE66E030EDBCFE9FF040EDBCFEAFFC3
:10100000E552E750EF6E01D06C8121D0020EDB502B
:10101000E76E000EDFCFE9FF010EDBCFEAFFE750FE
:10102000E926000EEA22EF50040B10E0650502E10C
:10103000880E01D0840EE66E030EDBCFE9FF040EAE
:10104000DBCFEAFFE552E750EF6E01D06C816CB167
:1010500004D00401056BC80E046F01D06C8101D06F
:101060006C81D6D066517F0802E26C8108D0050EF3
:101070006F6F66C070F00401056BC80E046FC8D0B6
:10108000060E6F6F6751030A36E0010A17E0030A84
:1010900001E05BD0560E716F150E726F71C0F6FFD6
:1010A00072C0F7FF0800F5CF73F06B5105E1735183
:1010B0006A5D02E26AC073F0A7D948D0665101E0C8
:1010C00005D0680E716F150E726F01D06C816CB116
:1010D00011D0020EF76A7125F66E7251F7220800E0
:1010E000F5CF73F06B5105E173516A5D02E26AC09E
:1010F00073F08AD92BD06651020A0FE0030A08E088
:10110000010A01E00FD07A0E716F150E726F0BD0CD
:101110007E0E716F150E726F06D0B20E716F150EC6
:10112000726F01D06C816CB10FD071C0F6FF72C0CC
:10113000F7FF0800F5CF73F06B5105E173516A5D5D
:1011400002E26AC073F060D901D06C8161D006C43C
:10115000E9FF07C4EAFF6DC0EFFF0401010E056F50
:10116000C80E046F55D06651010824E3716A726A93
:10117000736A746A756A766A776A786A796A7A6A6B
:101180007B6A7C6A7D6A7E6A7F6A66C06DF06651A2
:1011900001E006D0020E766FE00E8116818405D044
:1011A000030E766FE00E811681860401056BC80E72
:1011B000046F01D06C812CD07651030A01E010D06D
:1011C000010E685D0BE206C4E9FF07C4EAFFEF6A9F
:1011D0000401010E056FC80E046F01D06C8101D0AF
:1011E0006C8116D07651030A01E00FD0010E685DC4
:1011F0000AE2665101E005D00401056BC80E046FD8
:1012000001D06C8101D06C8101D06C8101D06C81E6
:10121000050EE15C02E2E16AE552E16EE552E7CFDC
:10122000D9FF12000001655100D06C811200D9CFA6
:10123000E6FFE1CFD9FFD950FD0FE96EFF0EDA20AE
:10124000EA6EEE50ED1003E0030EC26E02D0070E00
:10125000C26EC2B2FED7C45000D0E552E7CFD9FF6C
:101260001200D9CFE6FFE1CFD9FFD950FD0FE96ECB
:10127000FF0EDA20EA6EEE50ED100CE08050040B09
:1012800001E0010E006E016A00C0F3FF01C0F4FF2F
:101290000CD00BD08050080B01E0010E006E016AEB
:1012A00000C0F3FF01C0F4FF00D0E552E7CFD9FF43
:1012B0001200D9CFE6FFE1CFD9FFD950FD0FE96E7B
:1012C000FF0EDA20EA6EEE50ED1002E0808801D0C9
:1012D000808AE552E7CFD9FF1200D9CFE6FFE1CFF0
:1012E000D9FFD950FD0FE96EFF0EDA20EA6EEE50FD
:1012F000ED1002E0809801D0809AE552E7CFD9FF47
:10130000120000016551040A35E0070A28E0010ACD
:1013100014E0030A01E039D06651E66EE66A87DF21
:10132000E552E55206C4E9FF07C4EAFFEF6E040187
:10133000010E056FC80E046F29D06651E66EE66A8D
:1013400090DFE552E552F35006C4E9FF07C4EAFF17
:10135000EF6E0401010E056FC80E046F17D06651C1
:10136000E66EE66AA6DFE552E5520401056BC80E9B
:10137000046F0CD06651E66EE66AAFDFE552E552C7
:101380000401056BC80E046F01D06C811200180EA9
:1013900000017515100A20E0180A1DE0080A01E096
:1013A0001CD06F51060A14E0030A01E013D070C08C
:1013B0006EFF6E5001E006D0010E766FE00E8116D2
:1013C000818205D0020E766FE00E8116818402D0F4
:1013D0001BD800D002D001D000D01200180E00019E
:1013E0007515100A0FE0180A0CE0080A01E00BD08E
:1013F0000401080E016F880E006F056BC80E046FA4
:1014000002D001D000D01200D9CFE6FFE1CFD9FF42
:10141000E652080E0001735D05E26F6973C074F057
:10142000736B03D0080E746F735FDF6A0001745131
:10143000DF5C16E271C0F6FF72C0F7FF712B000E81
:1014400072230800F550E66EDF500401EA6A0625B3
:10145000E96E0751EA22E552E750EF6EDF2AE6D740
:1014600074C005F4400E04010419400B8809046F90
:10147000E552E552E7CFD9FF1200D9CFE6FFE1CF21
:10148000D9FFE652806A0F0E926E0D0EC16E2E0EBF
:10149000C06E850ED56E96EC05F0030E0001765DEC
:1014A00003E0A7EC05F0F9D7A7EC05F0FDD7E5526E
:0814B000E552E7CFD9FF12005D
:0814B8002A0EF66E0B0EF76E12
:1014C000000EF86E00010900F5507C6F0900F55020
:1014D0007D6F03E17C6701D03DD00900F550776F47
:1014E0000900F550786F0900F550796F090009007F
:1014F000F550E96E0900F550EA6E0900090009008F
:10150000F5507A6F0900F5507B6F09000900F6CF9E
:101510007EF0F7CF7FF0F8CF80F077C0F6FF78C08D
:10152000F7FF79C0F8FF00017A5302E17B5307E02F
:101530000900F550EE6E7A07F8E27B07F9D77EC016
:10154000F6FF7FC0F7FF80C0F8FF00017C07000EA8
:061550007D5BBFD7120015
:0A1556001201100100000008666693
:10156000030000000102000109021200010100A0B5
:10157000320904000000FF00FF00040309043403E3
:101580005000720069006E006300690070006C001A
:101590006500730020006F006600200045006E00AB
:1015A000670069006E0065006500720069006E00EA
:1015B0006700320345004E00470052002000320011
:1015C00032003100300020004C0061006200200039
:1015D000330020004600690072006D007700610052
:0415E0007200650030
:0C15E400000EF36E00EE00F0040E01D8C3
:1015F0001200EA6002D0EE6AFCD7F350E9601200F4
:04160000EE6AFCD7BB
:0C16040013EE00F023EE00F0F86A049CE6
:101610005CEC0AF010EC0BF03DEC0AF0FBD712008A
:021620001200B6
:020000040030CA
:0100000030CF
:0100010002FC
:010002003FBE
:010003001EDE
:0100050001F9
:010006008178
:010008000FE8
:01000900C036
:01000A000FE6
:01000B00E014
:01000C000FE4
:01000D0040B2
:00000001FF
